{
  "_format": "hh-sol-artifact-1",
  "contractName": "PrivacyManager",
  "sourceName": "contracts/privacyManager.sol",
  "abi": [
    {
      "inputs": [
        {
          "internalType": "address",
          "name": "_zkProofVerifier",
          "type": "address"
        }
      ],
      "stateMutability": "nonpayable",
      "type": "constructor"
    },
    {
      "anonymous": false,
      "inputs": [
        {
          "indexed": true,
          "internalType": "address",
          "name": "user",
          "type": "address"
        },
        {
          "indexed": false,
          "internalType": "bool",
          "name": "consent",
          "type": "bool"
        },
        {
          "indexed": false,
          "internalType": "string",
          "name": "dataURI",
          "type": "string"
        },
        {
          "indexed": false,
          "internalType": "bytes32",
          "name": "dataHash",
          "type": "bytes32"
        }
      ],
      "name": "ConsentUpdated",
      "type": "event"
    },
    {
      "anonymous": false,
      "inputs": [
        {
          "indexed": true,
          "internalType": "address",
          "name": "user",
          "type": "address"
        }
      ],
      "name": "UserRegistered",
      "type": "event"
    },
    {
      "inputs": [
        {
          "internalType": "address",
          "name": "_user",
          "type": "address"
        }
      ],
      "name": "getUserInfo",
      "outputs": [
        {
          "internalType": "bool",
          "name": "exists",
          "type": "bool"
        },
        {
          "internalType": "bool",
          "name": "consent",
          "type": "bool"
        },
        {
          "internalType": "string",
          "name": "dataURI",
          "type": "string"
        },
        {
          "internalType": "bytes32",
          "name": "dataHash",
          "type": "bytes32"
        }
      ],
      "stateMutability": "view",
      "type": "function"
    },
    {
      "inputs": [
        {
          "internalType": "address",
          "name": "_user",
          "type": "address"
        }
      ],
      "name": "isRegistered",
      "outputs": [
        {
          "internalType": "bool",
          "name": "",
          "type": "bool"
        }
      ],
      "stateMutability": "view",
      "type": "function"
    },
    {
      "inputs": [
        {
          "components": [
            {
              "internalType": "bytes32",
              "name": "a",
              "type": "bytes32"
            },
            {
              "internalType": "bytes32",
              "name": "b",
              "type": "bytes32"
            },
            {
              "internalType": "bytes32",
              "name": "c",
              "type": "bytes32"
            }
          ],
          "internalType": "struct ZkProofVerifier.Proof",
          "name": "_proof",
          "type": "tuple"
        },
        {
          "internalType": "uint256[]",
          "name": "_publicSignals",
          "type": "uint256[]"
        }
      ],
      "name": "registerUser",
      "outputs": [],
      "stateMutability": "nonpayable",
      "type": "function"
    },
    {
      "inputs": [
        {
          "internalType": "bool",
          "name": "_consent",
          "type": "bool"
        },
        {
          "internalType": "string",
          "name": "_dataURI",
          "type": "string"
        },
        {
          "internalType": "bytes32",
          "name": "_dataHash",
          "type": "bytes32"
        }
      ],
      "name": "setConsent",
      "outputs": [],
      "stateMutability": "nonpayable",
      "type": "function"
    },
    {
      "inputs": [],
      "name": "verifier",
      "outputs": [
        {
          "internalType": "contract ZkProofVerifier",
          "name": "",
          "type": "address"
        }
      ],
      "stateMutability": "view",
      "type": "function"
    }
  ],
  "bytecode": "0x608060405234801561001057600080fd5b50604051611583380380611583833981810160405281019061003291906100db565b806000806101000a81548173ffffffffffffffffffffffffffffffffffffffff021916908373ffffffffffffffffffffffffffffffffffffffff16021790555050610108565b600080fd5b600073ffffffffffffffffffffffffffffffffffffffff82169050919050565b60006100a88261007d565b9050919050565b6100b88161009d565b81146100c357600080fd5b50565b6000815190506100d5816100af565b92915050565b6000602082840312156100f1576100f0610078565b5b60006100ff848285016100c6565b91505092915050565b61146c806101176000396000f3fe608060405234801561001057600080fd5b50600436106100575760003560e01c80632b7ac3f31461005c5780636316a57e1461007a5780636386c1c714610096578063b0f3bb94146100c9578063c3c5a547146100e5575b600080fd5b610064610115565b60405161007191906107cb565b60405180910390f35b610094600480360381019061008f9190610a28565b610139565b005b6100b060048036038101906100ab9190610ac2565b6103cd565b6040516100c09493929190610b98565b60405180910390f35b6100e360048036038101906100de9190610c6b565b610517565b005b6100ff60048036038101906100fa9190610ac2565b6106f3565b60405161010c9190610cdf565b60405180910390f35b60008054906101000a900473ffffffffffffffffffffffffffffffffffffffff1681565b600160003373ffffffffffffffffffffffffffffffffffffffff1673ffffffffffffffffffffffffffffffffffffffff16815260200190815260200160002060000160009054906101000a900460ff16156101c9576040517f08c379a00000000000000000000000000000000000000000000000000000000081526004016101c090610d6c565b60405180910390fd5b60008060009054906101000a900473ffffffffffffffffffffffffffffffffffffffff1673ffffffffffffffffffffffffffffffffffffffff1663e7f5fb9784846040518363ffffffff1660e01b8152600401610227929190610e9b565b602060405180830381865afa158015610244573d6000803e3d6000fd5b505050506040513d601f19601f820116820180604052508101906102689190610ee0565b9050806102aa576040517f08c379a00000000000000000000000000000000000000000000000000000000081526004016102a190610f59565b60405180910390fd5b60405180608001604052806001151581526020016000151581526020016040518060200160405280600081525081526020016000801b815250600160003373ffffffffffffffffffffffffffffffffffffffff1673ffffffffffffffffffffffffffffffffffffffff16815260200190815260200160002060008201518160000160006101000a81548160ff02191690831515021790555060208201518160000160016101000a81548160ff0219169083151502179055506040820151816001019081610377919061117b565b50606082015181600201559050503373ffffffffffffffffffffffffffffffffffffffff167f54db7a5cb4735e1aac1f53db512d3390390bb6637bd30ad4bf9fc98667d9b9b960405160405180910390a2505050565b6000806060600080600160008773ffffffffffffffffffffffffffffffffffffffff1673ffffffffffffffffffffffffffffffffffffffff1681526020019081526020016000206040518060800160405290816000820160009054906101000a900460ff161515151581526020016000820160019054906101000a900460ff1615151515815260200160018201805461046590610fa8565b80601f016020809104026020016040519081016040528092919081815260200182805461049190610fa8565b80156104de5780601f106104b3576101008083540402835291602001916104de565b820191906000526020600020905b8154815290600101906020018083116104c157829003601f168201915b50505050508152602001600282015481525050905080600001518160200151826040015183606001519450945094509450509193509193565b600160003373ffffffffffffffffffffffffffffffffffffffff1673ffffffffffffffffffffffffffffffffffffffff16815260200190815260200160002060000160009054906101000a900460ff166105a6576040517f08c379a000000000000000000000000000000000000000000000000000000000815260040161059d906112bf565b60405180910390fd5b83600160003373ffffffffffffffffffffffffffffffffffffffff1673ffffffffffffffffffffffffffffffffffffffff16815260200190815260200160002060000160016101000a81548160ff0219169083151502179055508282600160003373ffffffffffffffffffffffffffffffffffffffff1673ffffffffffffffffffffffffffffffffffffffff16815260200190815260200160002060010191826106519291906112ea565b5080600160003373ffffffffffffffffffffffffffffffffffffffff1673ffffffffffffffffffffffffffffffffffffffff168152602001908152602001600020600201819055503373ffffffffffffffffffffffffffffffffffffffff167f330144ab9655ad6a7d768b6160bd3e186ec5e957ee8f9c942dbc2c685c08f202858585856040516106e594939291906113f6565b60405180910390a250505050565b6000600160008373ffffffffffffffffffffffffffffffffffffffff1673ffffffffffffffffffffffffffffffffffffffff16815260200190815260200160002060000160009054906101000a900460ff169050919050565b600073ffffffffffffffffffffffffffffffffffffffff82169050919050565b6000819050919050565b600061079161078c6107878461074c565b61076c565b61074c565b9050919050565b60006107a382610776565b9050919050565b60006107b582610798565b9050919050565b6107c5816107aa565b82525050565b60006020820190506107e060008301846107bc565b92915050565b6000604051905090565b600080fd5b600080fd5b600080fd5b6000601f19601f8301169050919050565b7f4e487b7100000000000000000000000000000000000000000000000000000000600052604160045260246000fd5b610848826107ff565b810181811067ffffffffffffffff8211171561086757610866610810565b5b80604052505050565b600061087a6107e6565b9050610886828261083f565b919050565b6000819050919050565b61089e8161088b565b81146108a957600080fd5b50565b6000813590506108bb81610895565b92915050565b6000606082840312156108d7576108d66107fa565b5b6108e16060610870565b905060006108f1848285016108ac565b6000830152506020610905848285016108ac565b6020830152506040610919848285016108ac565b60408301525092915050565b600080fd5b600067ffffffffffffffff82111561094557610944610810565b5b602082029050602081019050919050565b600080fd5b6000819050919050565b61096e8161095b565b811461097957600080fd5b50565b60008135905061098b81610965565b92915050565b60006109a461099f8461092a565b610870565b905080838252602082019050602084028301858111156109c7576109c6610956565b5b835b818110156109f057806109dc888261097c565b8452602084019350506020810190506109c9565b5050509392505050565b600082601f830112610a0f57610a0e610925565b5b8135610a1f848260208601610991565b91505092915050565b60008060808385031215610a3f57610a3e6107f0565b5b6000610a4d858286016108c1565b925050606083013567ffffffffffffffff811115610a6e57610a6d6107f5565b5b610a7a858286016109fa565b9150509250929050565b6000610a8f8261074c565b9050919050565b610a9f81610a84565b8114610aaa57600080fd5b50565b600081359050610abc81610a96565b92915050565b600060208284031215610ad857610ad76107f0565b5b6000610ae684828501610aad565b91505092915050565b60008115159050919050565b610b0481610aef565b82525050565b600081519050919050565b600082825260208201905092915050565b60005b83811015610b44578082015181840152602081019050610b29565b60008484015250505050565b6000610b5b82610b0a565b610b658185610b15565b9350610b75818560208601610b26565b610b7e816107ff565b840191505092915050565b610b928161088b565b82525050565b6000608082019050610bad6000830187610afb565b610bba6020830186610afb565b8181036040830152610bcc8185610b50565b9050610bdb6060830184610b89565b95945050505050565b610bed81610aef565b8114610bf857600080fd5b50565b600081359050610c0a81610be4565b92915050565b600080fd5b60008083601f840112610c2b57610c2a610925565b5b8235905067ffffffffffffffff811115610c4857610c47610c10565b5b602083019150836001820283011115610c6457610c63610956565b5b9250929050565b60008060008060608587031215610c8557610c846107f0565b5b6000610c9387828801610bfb565b945050602085013567ffffffffffffffff811115610cb457610cb36107f5565b5b610cc087828801610c15565b93509350506040610cd3878288016108ac565b91505092959194509250565b6000602082019050610cf46000830184610afb565b92915050565b7f507269766163794d616e616765723a20416c726561647920726567697374657260008201527f6564000000000000000000000000000000000000000000000000000000000000602082015250565b6000610d56602283610b15565b9150610d6182610cfa565b604082019050919050565b60006020820190508181036000830152610d8581610d49565b9050919050565b610d958161088b565b82525050565b606082016000820151610db16000850182610d8c565b506020820151610dc46020850182610d8c565b506040820151610dd76040850182610d8c565b50505050565b600081519050919050565b600082825260208201905092915050565b6000819050602082019050919050565b610e128161095b565b82525050565b6000610e248383610e09565b60208301905092915050565b6000602082019050919050565b6000610e4882610ddd565b610e528185610de8565b9350610e5d83610df9565b8060005b83811015610e8e578151610e758882610e18565b9750610e8083610e30565b925050600181019050610e61565b5085935050505092915050565b6000608082019050610eb06000830185610d9b565b8181036060830152610ec28184610e3d565b90509392505050565b600081519050610eda81610be4565b92915050565b600060208284031215610ef657610ef56107f0565b5b6000610f0484828501610ecb565b91505092915050565b7f507269766163794d616e616765723a20496e76616c6964205a4b2070726f6f66600082015250565b6000610f43602083610b15565b9150610f4e82610f0d565b602082019050919050565b60006020820190508181036000830152610f7281610f36565b9050919050565b7f4e487b7100000000000000000000000000000000000000000000000000000000600052602260045260246000fd5b60006002820490506001821680610fc057607f821691505b602082108103610fd357610fd2610f79565b5b50919050565b60008190508160005260206000209050919050565b60006020601f8301049050919050565b600082821b905092915050565b60006008830261103b7fffffffffffffffffffffffffffffffffffffffffffffffffffffffffffffffff82610ffe565b6110458683610ffe565b95508019841693508086168417925050509392505050565b600061107861107361106e8461095b565b61076c565b61095b565b9050919050565b6000819050919050565b6110928361105d565b6110a661109e8261107f565b84845461100b565b825550505050565b600090565b6110bb6110ae565b6110c6818484611089565b505050565b5b818110156110ea576110df6000826110b3565b6001810190506110cc565b5050565b601f82111561112f5761110081610fd9565b61110984610fee565b81016020851015611118578190505b61112c61112485610fee565b8301826110cb565b50505b505050565b600082821c905092915050565b600061115260001984600802611134565b1980831691505092915050565b600061116b8383611141565b9150826002028217905092915050565b61118482610b0a565b67ffffffffffffffff81111561119d5761119c610810565b5b6111a78254610fa8565b6111b28282856110ee565b600060209050601f8311600181146111e557600084156111d3578287015190505b6111dd858261115f565b865550611245565b601f1984166111f386610fd9565b60005b8281101561121b578489015182556001820191506020850194506020810190506111f6565b868310156112385784890151611234601f891682611141565b8355505b6001600288020188555050505b505050505050565b7f507269766163794d616e616765723a2055736572206e6f74207265676973746560008201527f7265640000000000000000000000000000000000000000000000000000000000602082015250565b60006112a9602383610b15565b91506112b48261124d565b604082019050919050565b600060208201905081810360008301526112d88161129c565b9050919050565b600082905092915050565b6112f483836112df565b67ffffffffffffffff81111561130d5761130c610810565b5b6113178254610fa8565b6113228282856110ee565b6000601f831160018114611351576000841561133f578287013590505b611349858261115f565b8655506113b1565b601f19841661135f86610fd9565b60005b8281101561138757848901358255600182019150602085019450602081019050611362565b868310156113a457848901356113a0601f891682611141565b8355505b6001600288020188555050505b50505050505050565b82818337600083830152505050565b60006113d58385610b15565b93506113e28385846113ba565b6113eb836107ff565b840190509392505050565b600060608201905061140b6000830187610afb565b818103602083015261141e8185876113c9565b905061142d6040830184610b89565b9594505050505056fea26469706673582212207a867d3c30bff7b9cbc70cd9e1d8bfdd177f9cacd97fb535193cc4ebe09f834e64736f6c634300081c0033",
  "linkReferences": {},
  "deployedLinkReferences": {}
}