{
  "_format": "hh-sol-artifact-1",
  "contractName": "DataMarketplace",
  "sourceName": "contracts/dataMarketplace.sol",
  "abi": [
    {
      "inputs": [
        {
          "internalType": "address",
          "name": "_rlusdToken",
          "type": "address"
        },
        {
          "internalType": "uint256",
          "name": "_initialQueryPrice",
          "type": "uint256"
        }
      ],
      "stateMutability": "nonpayable",
      "type": "constructor"
    },
    {
      "anonymous": false,
      "inputs": [
        {
          "indexed": false,
          "internalType": "uint256",
          "name": "newPrice",
          "type": "uint256"
        }
      ],
      "name": "DataQueryPriceUpdated",
      "type": "event"
    },
    {
      "anonymous": false,
      "inputs": [
        {
          "indexed": true,
          "internalType": "address",
          "name": "buyer",
          "type": "address"
        },
        {
          "indexed": false,
          "internalType": "uint256",
          "name": "price",
          "type": "uint256"
        }
      ],
      "name": "QueryPurchased",
      "type": "event"
    },
    {
      "anonymous": false,
      "inputs": [
        {
          "indexed": true,
          "internalType": "address",
          "name": "user",
          "type": "address"
        },
        {
          "indexed": false,
          "internalType": "uint256",
          "name": "newScore",
          "type": "uint256"
        }
      ],
      "name": "ReputationUpdated",
      "type": "event"
    },
    {
      "anonymous": false,
      "inputs": [
        {
          "indexed": true,
          "internalType": "address",
          "name": "provider",
          "type": "address"
        },
        {
          "indexed": false,
          "internalType": "uint256",
          "name": "amount",
          "type": "uint256"
        }
      ],
      "name": "RewardsDistributed",
      "type": "event"
    },
    {
      "inputs": [],
      "name": "dataQueryPrice",
      "outputs": [
        {
          "internalType": "uint256",
          "name": "",
          "type": "uint256"
        }
      ],
      "stateMutability": "view",
      "type": "function"
    },
    {
      "inputs": [
        {
          "internalType": "address",
          "name": "_provider",
          "type": "address"
        },
        {
          "internalType": "uint256",
          "name": "_amount",
          "type": "uint256"
        }
      ],
      "name": "distributeRewards",
      "outputs": [],
      "stateMutability": "nonpayable",
      "type": "function"
    },
    {
      "inputs": [
        {
          "internalType": "address",
          "name": "_user",
          "type": "address"
        }
      ],
      "name": "getReputation",
      "outputs": [
        {
          "internalType": "uint256",
          "name": "",
          "type": "uint256"
        }
      ],
      "stateMutability": "view",
      "type": "function"
    },
    {
      "inputs": [],
      "name": "owner",
      "outputs": [
        {
          "internalType": "address",
          "name": "",
          "type": "address"
        }
      ],
      "stateMutability": "view",
      "type": "function"
    },
    {
      "inputs": [],
      "name": "purchaseDataAccess",
      "outputs": [],
      "stateMutability": "nonpayable",
      "type": "function"
    },
    {
      "inputs": [],
      "name": "rlusd",
      "outputs": [
        {
          "internalType": "contract RLUSDStablecoin",
          "name": "",
          "type": "address"
        }
      ],
      "stateMutability": "view",
      "type": "function"
    },
    {
      "inputs": [
        {
          "internalType": "uint256",
          "name": "_newPrice",
          "type": "uint256"
        }
      ],
      "name": "setDataQueryPrice",
      "outputs": [],
      "stateMutability": "nonpayable",
      "type": "function"
    },
    {
      "inputs": [
        {
          "internalType": "address",
          "name": "_user",
          "type": "address"
        },
        {
          "internalType": "uint256",
          "name": "_newScore",
          "type": "uint256"
        }
      ],
      "name": "updateReputation",
      "outputs": [],
      "stateMutability": "nonpayable",
      "type": "function"
    }
  ],
  "bytecode": "0x608060405234801561001057600080fd5b50604051610cd8380380610cd88339818101604052810190610032919061015a565b816000806101000a81548173ffffffffffffffffffffffffffffffffffffffff021916908373ffffffffffffffffffffffffffffffffffffffff1602179055508060028190555033600160006101000a81548173ffffffffffffffffffffffffffffffffffffffff021916908373ffffffffffffffffffffffffffffffffffffffff160217905550505061019a565b600080fd5b600073ffffffffffffffffffffffffffffffffffffffff82169050919050565b60006100f1826100c6565b9050919050565b610101816100e6565b811461010c57600080fd5b50565b60008151905061011e816100f8565b92915050565b6000819050919050565b61013781610124565b811461014257600080fd5b50565b6000815190506101548161012e565b92915050565b60008060408385031215610171576101706100c1565b5b600061017f8582860161010f565b925050602061019085828601610145565b9150509250929050565b610b2f806101a96000396000f3fe608060405234801561001057600080fd5b50600436106100885760003560e01c80639c89a0e21161005b5780639c89a0e2146100ef578063a8031a1d1461011f578063b0b4d4a71461013b578063f5c91a081461015957610088565b80631e5cf6121461008d5780634a84ee1b146100a95780638da5cb5b146100b35780638f050bda146100d1575b600080fd5b6100a760048036038101906100a29190610739565b610175565b005b6100b1610246565b005b6100bb610379565b6040516100c891906107a7565b60405180910390f35b6100d961039f565b6040516100e691906107d1565b60405180910390f35b61010960048036038101906101049190610818565b6103a5565b60405161011691906107d1565b60405180910390f35b61013960048036038101906101349190610845565b6103ee565b005b6101436105b4565b60405161015091906108e4565b60405180910390f35b610173600480360381019061016e9190610845565b6105d8565b005b600160009054906101000a900473ffffffffffffffffffffffffffffffffffffffff1673ffffffffffffffffffffffffffffffffffffffff163373ffffffffffffffffffffffffffffffffffffffff1614610205576040517f08c379a00000000000000000000000000000000000000000000000000000000081526004016101fc90610982565b60405180910390fd5b806002819055507ff3ec4f4aceec06756f979c76e1d366b796f1b59214bdbe4b2b7eec6934565b888160405161023b91906107d1565b60405180910390a150565b60008054906101000a900473ffffffffffffffffffffffffffffffffffffffff1673ffffffffffffffffffffffffffffffffffffffff166323b872dd33306002546040518463ffffffff1660e01b81526004016102a5939291906109a2565b6020604051808303816000875af11580156102c4573d6000803e3d6000fd5b505050506040513d601f19601f820116820180604052508101906102e89190610a11565b610327576040517f08c379a000000000000000000000000000000000000000000000000000000000815260040161031e90610ab0565b60405180910390fd5b3373ffffffffffffffffffffffffffffffffffffffff167fd1fb32200b0acc371985e770e778d3ba92a9f8a373bba4bd3fc25f813246d2c460025460405161036f91906107d1565b60405180910390a2565b600160009054906101000a900473ffffffffffffffffffffffffffffffffffffffff1681565b60025481565b6000600360008373ffffffffffffffffffffffffffffffffffffffff1673ffffffffffffffffffffffffffffffffffffffff168152602001908152602001600020549050919050565b600160009054906101000a900473ffffffffffffffffffffffffffffffffffffffff1673ffffffffffffffffffffffffffffffffffffffff163373ffffffffffffffffffffffffffffffffffffffff161461047e576040517f08c379a000000000000000000000000000000000000000000000000000000000815260040161047590610982565b60405180910390fd5b60008060009054906101000a900473ffffffffffffffffffffffffffffffffffffffff1673ffffffffffffffffffffffffffffffffffffffff1663a9059cbb84846040518363ffffffff1660e01b81526004016104dc929190610ad0565b6020604051808303816000875af11580156104fb573d6000803e3d6000fd5b505050506040513d601f19601f8201168201806040525081019061051f9190610a11565b905080610561576040517f08c379a000000000000000000000000000000000000000000000000000000000815260040161055890610ab0565b60405180910390fd5b8273ffffffffffffffffffffffffffffffffffffffff167fdf29796aad820e4bb192f3a8d631b76519bcd2cbe77cc85af20e9df53cece086836040516105a791906107d1565b60405180910390a2505050565b60008054906101000a900473ffffffffffffffffffffffffffffffffffffffff1681565b600160009054906101000a900473ffffffffffffffffffffffffffffffffffffffff1673ffffffffffffffffffffffffffffffffffffffff163373ffffffffffffffffffffffffffffffffffffffff1614610668576040517f08c379a000000000000000000000000000000000000000000000000000000000815260040161065f90610982565b60405180910390fd5b80600360008473ffffffffffffffffffffffffffffffffffffffff1673ffffffffffffffffffffffffffffffffffffffff168152602001908152602001600020819055508173ffffffffffffffffffffffffffffffffffffffff167ffc577563f1b9a0461e24abef1e1fcc0d33d3d881f20b5df6dda59de4aae2c821826040516106f291906107d1565b60405180910390a25050565b600080fd5b6000819050919050565b61071681610703565b811461072157600080fd5b50565b6000813590506107338161070d565b92915050565b60006020828403121561074f5761074e6106fe565b5b600061075d84828501610724565b91505092915050565b600073ffffffffffffffffffffffffffffffffffffffff82169050919050565b600061079182610766565b9050919050565b6107a181610786565b82525050565b60006020820190506107bc6000830184610798565b92915050565b6107cb81610703565b82525050565b60006020820190506107e660008301846107c2565b92915050565b6107f581610786565b811461080057600080fd5b50565b600081359050610812816107ec565b92915050565b60006020828403121561082e5761082d6106fe565b5b600061083c84828501610803565b91505092915050565b6000806040838503121561085c5761085b6106fe565b5b600061086a85828601610803565b925050602061087b85828601610724565b9150509250929050565b6000819050919050565b60006108aa6108a56108a084610766565b610885565b610766565b9050919050565b60006108bc8261088f565b9050919050565b60006108ce826108b1565b9050919050565b6108de816108c3565b82525050565b60006020820190506108f960008301846108d5565b92915050565b600082825260208201905092915050565b7f446174614d61726b6574706c6163653a204e6f7420636f6e7472616374206f7760008201527f6e65720000000000000000000000000000000000000000000000000000000000602082015250565b600061096c6023836108ff565b915061097782610910565b604082019050919050565b6000602082019050818103600083015261099b8161095f565b9050919050565b60006060820190506109b76000830186610798565b6109c46020830185610798565b6109d160408301846107c2565b949350505050565b60008115159050919050565b6109ee816109d9565b81146109f957600080fd5b50565b600081519050610a0b816109e5565b92915050565b600060208284031215610a2757610a266106fe565b5b6000610a35848285016109fc565b91505092915050565b7f446174614d61726b6574706c6163653a20524c555344207472616e736665722060008201527f6661696c65640000000000000000000000000000000000000000000000000000602082015250565b6000610a9a6026836108ff565b9150610aa582610a3e565b604082019050919050565b60006020820190508181036000830152610ac981610a8d565b9050919050565b6000604082019050610ae56000830185610798565b610af260208301846107c2565b939250505056fea2646970667358221220e26bbe0b08914f93c0ccefc05d08a325d828268ae1e57f8da2b58e2348b882e564736f6c634300081c0033",
  "linkReferences": {},
  "deployedLinkReferences": {}
}