{
  "_format": "hh-sol-artifact-1",
  "contractName": "ZkProofVerifier",
  "sourceName": "contracts/zkProofVerifier.sol",
  "abi": [
    {
      "inputs": [],
      "stateMutability": "nonpayable",
      "type": "constructor"
    },
    {
      "inputs": [
        {
          "components": [
            {
              "internalType": "bytes32",
              "name": "a",
              "type": "bytes32"
            },
            {
              "internalType": "bytes32",
              "name": "b",
              "type": "bytes32"
            },
            {
              "internalType": "bytes32",
              "name": "c",
              "type": "bytes32"
            }
          ],
          "internalType": "struct ZkProofVerifier.Proof",
          "name": "_proof",
          "type": "tuple"
        },
        {
          "internalType": "uint256[]",
          "name": "_publicSignals",
          "type": "uint256[]"
        }
      ],
      "name": "verifyProof",
      "outputs": [
        {
          "internalType": "bool",
          "name": "",
          "type": "bool"
        }
      ],
      "stateMutability": "pure",
      "type": "function"
    }
  ],
  "bytecode": "0x6080604052348015600f57600080fd5b506103c38061001f6000396000f3fe608060405234801561001057600080fd5b506004361061002b5760003560e01c8063e7f5fb9714610030575b600080fd5b61004a600480360381019061004591906102fb565b610060565b6040516100579190610372565b60405180910390f35b60008060001b8360000151148061007d57506000801b8360200151145b8061008e57506000801b8360400151145b1561009c57600090506100b3565b60008251036100ae57600090506100b3565b600190505b92915050565b6000604051905090565b600080fd5b600080fd5b600080fd5b6000601f19601f8301169050919050565b7f4e487b7100000000000000000000000000000000000000000000000000000000600052604160045260246000fd5b61011b826100d2565b810181811067ffffffffffffffff8211171561013a576101396100e3565b5b80604052505050565b600061014d6100b9565b90506101598282610112565b919050565b6000819050919050565b6101718161015e565b811461017c57600080fd5b50565b60008135905061018e81610168565b92915050565b6000606082840312156101aa576101a96100cd565b5b6101b46060610143565b905060006101c48482850161017f565b60008301525060206101d88482850161017f565b60208301525060406101ec8482850161017f565b60408301525092915050565b600080fd5b600067ffffffffffffffff821115610218576102176100e3565b5b602082029050602081019050919050565b600080fd5b6000819050919050565b6102418161022e565b811461024c57600080fd5b50565b60008135905061025e81610238565b92915050565b6000610277610272846101fd565b610143565b9050808382526020820190506020840283018581111561029a57610299610229565b5b835b818110156102c357806102af888261024f565b84526020840193505060208101905061029c565b5050509392505050565b600082601f8301126102e2576102e16101f8565b5b81356102f2848260208601610264565b91505092915050565b60008060808385031215610312576103116100c3565b5b600061032085828601610194565b925050606083013567ffffffffffffffff811115610341576103406100c8565b5b61034d858286016102cd565b9150509250929050565b60008115159050919050565b61036c81610357565b82525050565b60006020820190506103876000830184610363565b9291505056fea26469706673582212207068b0a94c55ef59711bd9292406fdfacc84845fc0390125045f888399d303da64736f6c634300081c0033",
  "linkReferences": {},
  "deployedLinkReferences": {}
}